:03000000020F2FBD
:0C0F2F00787FE4F6D8FD75810D020B34CC
:10080000202020202020202020434F4E4E454354BE
:100810004544204C4F4144205354415455532020CB
:1008200020202020202020200020202020202041C7
:100830004C4C204F4620544845204E4F44455320B1
:100840004152452041435449564520202020202034
:1008500020002020202020202020444953434F4EB8
:100860004E4543544544204C4F4144205354415439
:100870005553202020202020202000202020202030
:100880004E4F4E45204F4620544845204E4F44453C
:10089000532041524520494E41435449564520205A
:1008A0002020200020202020204E4F444520312CA5
:1008B000322C332C342C352C362C37204152452009
:1008C000414354495645202020202020002020204C
:1008D00020202020202020204E4F44452038204931
:1008E0005320494E41435449564520202020202082
:1008F0002020202020002020202020204E4F444572
:1009000020312C322C332C342C352C3620415245BE
:1009100020414354495645202020202020200020FB
:1009200020202020202020204E4F444520372C38E6
:100930002041524520494E414354495645202020EC
:100940002020202020202000202020202020204E99
:100950004F444520312C322C332C342C352041523D
:100960004520414354495645202020202020202066
:100970000020202020202020204E4F444520362CCF
:10098000372C382041524520494E41435449564561
:100990002020202020202020200020202020202077
:1009A00020204E4F444520312C322C332C34204112
:1009B00052452041435449564520202020202020E4
:1009C000202000202020202020204E4F444520358C
:1009D0002C362C372C382041524520494E41435467
:1009E00049564520202020202020200020202020A3
:1009F00020202020204E4F444520312C322C332003
:100A00004152452041435449564520202020202072
:100A100020202020002020202020204E4F44452050
:100A2000342C352C362C372C382041524520494E59
:100A300041435449564520202020202020002020DA
:100A400020202020202020204E4F444520312C32D1
:100A50002041524520414354495645202020202022
:100A60002020202020200020202020204E4F444500
:100A700020332C342C352C362C372C382041524541
:100A800020494E4143544956452020202020200033
:100A900020202020202020202020204E4F444520B0
:100AA00031204953204143544956452020202020DD
:100AB000202020202020202000202020204E4F44D5
:100AC0004520322C332C342C352C362C372C382026
:100AD00041524520494E414354495645202020204B
:100AE000200020202020204E4F4E45204F462054ED
:100AF0004845204E4F4445532041524520414354E0
:100B00004956452020202020202000202020202081
:100B1000414C4C204F4620544845204E4F444553AD
:100B20002041524520494E414354495645202020FA
:040B30002020200061
:100EEB00E4FDFCC3ED9FEC9E5015E4FBFA0BBB003D
:0F0EFB00010ABA02F8BB71F50DBD00010C80E4CD
:010F0A0022C4
:100F0B008FB0C2A5C2A6D2A77F017E00120EEBC284
:020F1B00A7220B
:100F1D008FB0C2A0C2A1D2A27F017E00120EEBC281
:020F2D00A222FE
:0B0F3B008FB0D2A5C2A6D2A7C2A72289
:0B0F46008FB0D2A0C2A1D2A2C2A22292
:060E13008B0B8A0C890D17
:100E1900E4FDFCAB0BAA0CA90D8D828C83120D5B32
:0D0E2900FF600A120F3B0DBD00010C80E6BA
:010E36002299
:060E37008B0B8A0C890DF3
:100E3D00E4FDFCAB0BAA0CA90D8D828C83120D5B0E
:0D0E4D00FF600A120F460DBD00010C80E68B
:010E5A002275
:040E5B00AB07AA0631
:100E5F007C007D0A120D88EF2430FF120F3BAE028B
:100E6F00AF037C007D0A120D88ED2430FF020F3B8B
:040E7F00AB07AA060D
:100E83007C007D0A120D88EF2430FF120F46AE025C
:100E9300AF037C007D0A120D88ED2430FF020F465C
:0B0EA3007F80120F0B7BFF7A087900A4
:100EAE008B088A09890A7F38120F0B7F0E120F0BDF
:090EBE00AB08AA09A90A020E13EF
:0B0EC7007F80120F1D7BFF7A0879521C
:100ED2008B088A09890A7F38120F1D7F0E120F1D97
:090EE200AB08AA09A90A020E37A7
:100B340030903730913430923130932E30942B30C2
:100B44009528309625309722120EA37FC0120F0BE2
:100B54007BFF7A087929120EAE120EC77FC0120FDE
:100B64001D7BFF7A08797B020D0020903730913489
:100B740030923130932E30942B3095283096253096
:100B84009722120EA37FC0120F0B7BFF7A0879A461
:100B9400120EAE120EC77FC0120F1D7BFF7A0879AA
:100BA400CD020D0020903720913430923130932EB5
:100BB40030942B309528309625309722120EA37F3F
:100BC400C0120F0B7BFF7A0879F6120EAE120EC715
:100BD4007FC0120F1D7BFF7A09791F020D00209040
:100BE4003720913420923130932E30942B30952835
:100BF400309625309722120EA37FC0120F0B7BFF75
:100C04007A097948120EAE120EC77FC0120F1D7BEF
:100C1400FF7A097971020D002090372091342092D7
:100C24003120932E30942B309528309625309722FE
:100C3400120EA37FC0120F0B7BFF7A09799A120E52
:100C4400AE120EC77FC0120F1D7BFF7A0979C30253
:100C54000D0020903720913420923120932E20943F
:100C64002B309528309625309722120EA37FC01280
:100C74000F0B7BFF7A0979EC120EAE120EC77FC000
:100C8400120F1D7BFF7A0A7915020D002090362081
:100C9400913320923020932D20942A20952730964A
:100CA40024309721120EA37FC0120F0B7BFF7A0A08
:100CB400793E120EAE120EC77FC0120F1D7BFF7A53
:100CC4000A7967803720903A209137209234209314
:100CD4003120942E20952B209628309725120EA390
:100CE4007FC0120F0B7BFF7A0A7990120EAE120EA0
:100CF400C77FC0120F1D7BFF7A0A79B9120ED20288
:100D04000B34309003020B34309103020B343092D5
:100D140003020B34309303020B34309403020B347C
:100D2400309503020B34309603020B3430970302E0
:100D34000B34120EA37FC0120F0B7BFF7A0A79E2E9
:100D4400120EAE120EC77FC0120F1D7BFF7A0B79F5
:070D54000B120ED2020B345A
:100D5B00BB010CE58229F582E5833AF583E022504D
:100D6B0006E92582F8E622BBFE06E92582F8E22297
:0D0D7B00E58229F582E5833AF583E49322B1
:100D8800C2D5EC30E709B2D5E4C39DFDE49CFCEE86
:100D980030E715B2D5E4C39FFFE49EFE120DBEC333
:100DA800E49DFDE49CFC8003120DBE30D507C3E42E
:060DB8009FFFE49EFE22F5
:100DBE00BC000BBE0029EF8DF084FFADF022E4CC19
:100DCE00F875F008EF2FFFEE33FEEC33FCEE9DECE2
:100DDE00984005FCEE9DFE0FD5F0E9E4CEFD22ED28
:100DEE00F8F5F0EE8420D21CFEADF075F008EF2F72
:100DFE00FFED33FD4007985006D5F0F222C398FD63
:050E0E000FD5F0EA22FF
:00000001FF
