:03000000020B648C
:0C0B6400787FE4F6D8FD75810D020800D2
:100A720020504F574552204752494420434F4D5032
:100A8200414E59204F462042414E474C4144455326
:100A9200482028504743422920002020202020209F
:100AA200204C4F4144204152454120534543544933
:100AB2004F4E2031205354415455532020202020A2
:040AC20020202000D0
:100B3200E4FDFCC3ED9FEC9E5015E4FBFA0BBB00F9
:0F0B4200010ABA02F8BB71F50DBD00010C80E489
:010B51002281
:100B52008FB0C2A0C2A1D2A27F017E00120B32C20C
:020B6200A222CD
:0B0B70008FB0D2A0C2A1D2A2C2A2226C
:060AC6008B0B8A0C890D68
:100ACC00E4FDFCAB0BAA0CA90D8D828C831209BA28
:0D0ADC00FF600A120B700DBD00010C80E6DA
:010AE90022EA
:040AEA00AB07AA06A6
:100AEE007C007D0A1209E7EF2430FF120B70AE0274
:100AFE00AF037C007D0A1209E7ED2430FF020B7074
:0B0B0E007F80120B527BFF7A0A797285
:100B19008B088A09890A7F38120B527F0E120B52F1
:090B2900AB08AA09A90A020AC6D8
:1008000030902830912530922230931F30941C3044
:100810009519309616309713D280D281D282D28326
:10082000D284D285D286D287020952209028309174
:100830002530922230931F30941C30951930961633
:10084000309713D280D281D282D283D284D285D201
:1008500086C28702095220902820912530922230AA
:10086000931F30941C309519309616309713D28010
:10087000D281D282D283D284D285C286C287020933
:100880005220902820912520922230931F30941CD2
:10089000309519309616309713D280D281D282D2F9
:1008A00083D284C285C286C2870209522090272043
:1008B000912420922120931E30941B30951830965D
:1008C00015309712D280D281D282D283C284C2855F
:1008D000C286C287807C20902720912420922120EC
:1008E000931E20941B309518309615309712D280A5
:1008F000D281D282C283C284C285C286C28780521C
:1009000020902720912420922120931E20941B20A8
:100910009518309615309712D280D281C282C28348
:10092000C284C285C286C287802820903920913631
:1009300020923320933020942D20952A2096273022
:100940009724D280C281C282C283C284C285C286F9
:10095000C287120B0E7FC0120B527BFF7A0A799C62
:10096000120B1902080030900302080030910302B4
:10097000080030920302080030930302080030940C
:1009800003020800309503020800309603020800B5
:10099000309703020800C280C281C282C283C2842F
:1009A000C285C286C287120B0E7FC0120B527BFF1C
:0A09B0007A0A799C120B1902080064
:1009BA00BB010CE58229F582E5833AF583E02250F2
:1009CA0006E92582F8E622BBFE06E92582F8E2223C
:0D09DA00E58229F582E5833AF583E4932256
:1009E700C2D5EC30E709B2D5E4C39DFDE49CFCEE2B
:1009F70030E715B2D5E4C39FFFE49EFE120A1DC37C
:100A0700E49DFDE49CFC8003120A1D30D507C3E476
:060A17009FFFE49EFE2299
:100A1D00BC000BBE0029EF8DF084FFADF022E4CCBD
:100A2D00F875F008EF2FFFEE33FEEC33FCEE9DEC86
:100A3D00984005FCEE9DFE0FD5F0E9E4CEFD22EDCC
:100A4D00F8F5F0EE8420D21CFEADF075F008EF2F16
:100A5D00FFED33FD4007985006D5F0F222C398FD07
:050A6D000FD5F0EA22A4
:00000001FF
